:020000040800F2
:10000000D832002001020008090200080B02000893
:100010000D0200080F020008110200080000000095
:10002000000000000000000000000000E1050008E2
:1000300015020008000000009105000831070008C3
:100040001B0200081B0200081B0200081B0200081C
:100050001B0200081B0200081B0200081B0200080C
:100060001B0200081B0200081B0200081B020008FC
:100070001B0200081B020008890400081B0200087C
:100080001B0200081B0200081B0200081B020008DC
:100090001B0200081B0200081B0200081B020008CC
:1000A0001B0200081B0200081B0200081B020008BC
:1000B0001B0200081B0200081B0200081B020008AC
:1000C0001B0200081B0200081B0200081B0200089C
:1000D0001B020008F90A00081B0200081B020008A6
:1000E0001B0200081B0200081B0200081B0200087C
:1000F0001B0200081B0200081B0200081B0200086C
:100100001B0200081B0200081B0200081B0200085B
:100110001B0200081B0200081B0200081B0200084B
:100120001B0200081B0200081B0200081B0200083B
:1001300000F002F800F050F814A696E8000CB24463
:10014000B344DA4501D100F047F8BAE80F000FA632
:1001500096E83000A5EB040504EB0607AAEB0704BC
:10016000A7F101074FEA15154FEA3414A4F1010471
:10017000AC4201D300F030F813F0010F18BFFB1AA6
:1001800043F0010300F001F8DBE7184740370000B7
:1001900060370000103A24BF78C878C1FAD85207F7
:1001A00024BF30C830C144BF04680C6070470000F1
:1001B000704700000023002400250026103A28BFC5
:1001C00078C1FBD8520728BF30C148BF0B607047C9
:1001D0001FB51FBD10B510BD00F01CF9114603B4CA
:1001E00000F06EFD03BCFFF7F3FF00F07BFD00F0B5
:1001F00036F903B4FFF7EEFF03BC00F03DF9000051
:100200000948804709480047FEE7FEE7FEE7FEE7AA
:10021000FEE7FEE7FEE7FEE7FEE7FEE704480549E6
:10022000054A064B7047000001090008310100082B
:10023000D82C0020D8320020D82E0020D82E002024
:1002400010B5431C02E010F8011B71B18107FAD10F
:100250004FF0013202C88C1A8C4314EAC211F9D053
:10026000C01A0A0603D0C01E10BDC01A10BD0A0471
:1002700001D0801E10BD0902FCD0401E10BD032A13
:1002800040F2308010F0030C00F0158011F8013BB3
:10029000BCF1020F624498BF11F801CB00F8013B9A
:1002A00038BF11F8013BA2F1040298BF00F801CB5E
:1002B00038BF00F8013B11F0030300F05280083A08
:1002C000C0F0088051F8043B083A51F804CBA0E88C
:1002D0000810F5E7121D5CBF51F8043B40F8043BE1
:1002E000AFF30080D20724BF11F8013B11F801CB16
:1002F00048BF11F8012B24BF00F8013B00F801CBE7
:1003000048BF00F8012B704702F0FF0343EA0322C5
:1003100042EA024200F059B84FF000020429C0F04E
:10032000128010F0030C00F05080CCF1040CBCF1F2
:10033000020F18BF00F8012BA8BF20F8022BA1EB79
:100340000C0100F042B85FEAC17C24BF00F8012B29
:1003500000F8012B48BF00F8012B70477047704729
:10036000704710B5203AC0F00B80B1E81850A0E8F3
:100370001850B1E81850A0E81850203ABFF4F5AF73
:100380005FEA027C24BFB1E81850A0E8185044BFCF
:1003900018C918C0BDE810405FEA827C24BF51F83C
:1003A000043B40F8043B08BF7047D20728BF31F830
:1003B000023B48BF11F8012B28BF20F8023B48BF81
:1003C00000F8012B70474FF0000200B51346944629
:1003D0009646203922BFA0E80C50A0E80C50B1F19D
:1003E0002001BFF4F7AF090728BFA0E80C5048BFB1
:1003F0000CC05DF804EB890028BF40F8042B08BF4F
:10040000704748BF20F8022B11F0804F18BF00F84A
:10041000012B7047754600F02BF8AE460500694683
:10042000534620F00700854618B020B5FFF7F6FECA
:10043000BDE820404FF000064FF000074FF00008E5
:100440004FF0000BAC46ACE8C009ACE8C009ACE822
:10045000C009ACE8C00921F007018D46704710B50E
:100460000446AFF300802046BDE81040FFF7C1BE50
:10047000004870470800002001491820ABBEFEE785
:10048000260002007047000080B50020C4F2020080
:1004900000688004002810D5FFE70421C4F202019F
:1004A000086840F40050086040F29870C2F2000002
:1004B0000068002102F0B8FAFFE780BD80B582B085
:1004C00041F21401C4F20201086840F00100086022
:1004D0004421C4F20201002000900860086840F046
:1004E000920008604C21C4F2020143F60400C4F2F9
:1004F0000100019008600E2000F022FB009A019894
:100500005821C4F202010A600A6842F0A2020A609D
:100510006022C4F20202106040F23070C2F20000A9
:100520006422C4F2020210605C22C4F2020264205F
:100530001060086840F0010008600F2000F000FB28
:1005400002B080BD41F21801C4F20201086840F017
:100550000400086040F60401C4F20101086820F0BC
:10056000C0000860086840F080000860086840F03B
:1005700030000860086820F440600860086840F4B3
:1005800080600860086820F44070086070470000D0
:10059000EFF30980BFF36F8F0D4B1A6820E9F00F5E
:1005A00010602DE908404FF0800080F3118801F0C1
:1005B0009BFF4FF0000080F31188BDE808401968E8
:1005C0000868B0E8F00F80F30988BFF36F8F7047B9
:1005D000B402002000000000000000000000000045
:1005E000074B19680868B0E8F00F80F30988BFF37B
:1005F0006F8F4FF0000080F311884EF00D0E7047A2
:10060000B402002080B500F001F880BD84B0002065
:100610000390029041F20001C4F20201086840F424
:1006200080300860FFE741F20000C4F20200006879
:1006300000F400300290039801300390FFE7029924
:100640000020019039B9FFE70398B0F5A06018BF0A
:1006500001200190FFE70198C0070028E3D1FFE7E0
:1006600041F20000C4F2020000688003002803D5B4
:10067000FFE70120029002E000200290FFE70298CD
:10068000012851D1FFE742F20001C4F202010868DB
:1006900040F010000860086820F007000860086853
:1006A00040F00200086041F20401C4F2020100912E
:1006B0000868086008680860086840F4806008609E
:1006C000086820F47C100860086840F4E8100860AE
:1006D00041F20001C4F20201086840F08070086035
:1006E000FFE741F20000C4F2020000688001002828
:1006F00001D4FFE7F5E741F20401C4F20201086802
:1007000020F003000860086840F002000860FFE77E
:1007100041F20400C4F20200006800F00C00082856
:1007200001D0FFE7F4E700E0FFE704B07047000006
:1007300080B54EF21000CEF20000006802F00CFC12
:10074000012803D0FFE701F089FFFFE780BD00002B
:1007500080B541F20001C4F20201086840F4803023
:100760000860FFE741F20000C4F202000068800365
:10077000002801D4FFE7F5E741F20401C4F20201C9
:10078000086840F4E810086041F20001C4F2020178
:10079000086840F080700860FFE741F20000C4F292
:1007A000020000688001002801D4FFE7F5E741F26C
:1007B0000401C4F20201086840F002000860FFE78B
:1007C00041F20400C4F20200006800F00C000828A6
:1007D00001D0FFE7F4E700F001F880BD84B000200D
:1007E00003900290019041F20400C4F202000068FC
:1007F00000F00C0003900398009040B1FFE70098D0
:1008000004280ED0FFE70098082814D056E040F2E4
:100810000001C2F2000141F20020C0F27A0008603B
:1008200056E040F20001C2F2000141F20020C0F2A5
:100830007A0008604CE041F20400C4F20200016852
:1008400001F470110291006800F480300190029967
:10085000022000EB91400290019860B9FFE70298F6
:1008600040F60011C0F23D01484340F20001C2F2DF
:100870000001086021E041F20400C4F202000068B7
:10088000800300280CD5FFE7029840F60011C0F263
:100890003D01484340F20001C2F2000108600BE054
:1008A000029841F20021C0F27A01484340F200016F
:1008B000C2F200010860FFE7FFE709E040F2000133
:1008C000C2F2000141F20020C0F27A000860FFE7A6
:1008D00041F20400C4F202000068C0B2010943F60C
:1008E000A000C0F60000405C0390039A40F20001B3
:1008F000C2F200010868D040086004B070470000F0
:1009000080B541F20002C4F20202106840F001001A
:10091000106041F20401C4F2020108680023CFF61E
:10092000FF031840086010684FF6FF73CFF6F663B8
:1009300018401060106820F480201060086820F4CF
:10094000FE00086041F20801C4F202014FF41F00EA
:100950000860FFF757FE4EF60851CEF200014FF047
:100960000060086080BD000080B582B041F21801CF
:10097000C4F20201086840F4804008604FF4165049
:10098000019040F20000C2F2000000680199B0FB43
:10099000F1F043F60801C4F20101088043F61401A6
:1009A000C4F20101088840F0C000088043F60C0141
:1009B000C4F2010142F21C000880252000F0C0F8BA
:1009C00002B080BD80B586B00590FFE740F22C7084
:1009D000C2F2000000684FF0FF3102F033F9012845
:1009E00040F08980FFE75C20C4F202000068C0F19B
:1009F0006400ADF81200BDF8120040F26801C2F2C6
:100A000000010988884275D0FFE7BDF8120040F266
:100A10006801C2F200010988884214DDFFE740F254
:100A20006800C2F20000028840F23070C2F200009A
:100A30008118BDF81200821A40F29C70C2F20000C8
:100A4000FFF71DFC1FE040F26800C2F200000190B9
:100A5000008840F23071C2F2000102910144C0F1FD
:100A6000640240F29C70C2F200000390FFF707FCA2
:100A7000019A029903981288801A6430BDF81220F6
:100A8000FFF7FDFBFFE7BDF8120040F26801C2F27C
:100A9000000108804421C4F202010091086820F09E
:100AA0000100086040F29C70C2F200005021C4F2C4
:100AB00002010860FFF7C4FB00994822C4F2020259
:100AC0001060086840F00100086040F29870C2F2BF
:100AD000000000684FF0FF3102F0B4F8012808D19F
:100AE000FFE740F29C70C2F200006421FFF714FCA3
:100AF000FFE7FFE7FFE769E780B543F60000C4F2D0
:100B000001000088C006002819D5FFE743F6000061
:100B1000C4F20100008843F60400C4F2010000881A
:100B200040F29471C2F200010120087040F22C7072
:100B3000C2F200000068002101F076FFFFE780BDEF
:100B400081B08DF803009DF9030000280ED4FFE763
:100B50009DF9031001F01F02012090404A094EF256
:100B60000011CEF2000141F82200FFE701B070470A
:100B700080B582B0019000F0EFF858B1FFE700F0C7
:100B8000A1F838B1FFE7019800684FF0FF3102F09B
:100B900059F8FFE702B080BD80B582B0019001989E
:100BA000006801F01FFB00200090FFE70098042878
:100BB0001AD8FFE701980068009A40F2FC11C2F2CF
:100BC000000151F82210884209D1FFE7009A40F253
:100BD000FC11C2F20001002041F8220004E0FFE70E
:100BE000009801300090E1E702B080BD80B584B08C
:100BF00001900199002008600090FFE70098042808
:100C000028D8FFE7009940F2FC10C2F2000050F82B
:100C10002100D0B9FFE7009800EB800140F26C00A2
:100C2000C2F2000000EB0111012001F04BFD014672
:100C3000009A40F2FC10C2F2000040F82210009925
:100C400050F821000199086004E0FFE700980130A6
:100C50000090D3E70198006850B9FFE700F07CF8F6
:100C600030B1FFE7012001F019FD01990860FFE7AD
:100C700000200390039880F311880198006818B948
:100C8000FFE70020029002E001200290FFE70298B7
:100C900004B080BD80B582B0019000F05DF860B115
:100CA000FFE700F00FF840B1FFE70198006800236C
:100CB00019461A4601F002FEFFE702B080BD0000AF
:100CC0007047000082B0EFF305800190019818B1E1
:100CD000FFE70120009002E000200090FFE700986D
:100CE00002B0704780B586B0002003900590FFF7F2
:100CF0002FFDFFF727FCFFF737FEFFF7DFFB039918
:100D0000012004900322029201F0F6FC029A03995A
:100D10000346049840F2987CC2F2000CCCF80030F4
:100D200001F0EAFC039B0146049840F22C72C2F2E7
:100D30000002116069464B60086040F6C510C0F6BD
:100D4000000043F6B001C0F60001802202F0ACF8CA
:100D500001F088FBFFE7FEE780B582B002F0FCF807
:100D6000022803D1FFE70120019002E0002001905A
:100D7000FFE7019802B080BD80B588B0079006916A
:100D800042F6C440C2F200000068049040F2BC2069
:100D9000C2F200000068039040F2C420C2F20000DA
:100DA0000068029040F2B420C2F200000268002104
:100DB00082F85A100068043001F0D8F808B9FFE74B
:100DC00000E0FFE70798013028BBFFE7069810B363
:100DD000FFE7FFE742F69C41C2F20001486801903C
:100DE000019A40F2B420C2F2000003689A60019AAE
:100DF00092680368DA6002680432019B9B685A605B
:100E000002680432019B9A60006841610868013001
:100E10000860FFE735E004980799084405900598B5
:100E200040F2B421C2F200010968486005980499B3
:100E300088420AD2FFE7029840F2B421C2F20001D0
:100E40000968043101F00EF91AE0039840F2B42168
:100E5000C2F200010968043101F004F9059842F674
:100E60006841C2F200010968884207D2FFE705988D
:100E700042F66841C2F20001086000E0FFE7FFE7C8
:100E8000FFE708B080BD000080B582B0019001F09E
:100E90001FF942F60001C2F2000108680130086043
:100EA00040F2B420C2F20000006898B9FFE7019850
:100EB00040F2B421C2F20001086042F60000C2F222
:100EC00000000068012803D1FFE700F0E5FB00E027
:100ED000FFE71CE042F69040C2F200000068A0B9B3
:100EE000FFE740F2B420C2F200000068C06A019936
:100EF000C96A884207D8FFE7019840F2B421C2F2DC
:100F00000001086000E0FFE700E0FFE7FFE742F6CE
:100F10000C00C2F200000168013101600068019913
:100F20004864FFE7FFE70198C06A42F61001C2F289
:100F300000010968884208D9FFE70198C06A42F6B3
:100F40001001C2F200010860FFE7FFE7FFE7019828
:100F5000C06A00EB800040F2CC21C2F2000101EB3C
:100F60008000406800900098019A90600098806826
:100F7000019AD06001980430009A926850600198FC
:100F80000430009A9060019AD06A00EB800001EB77
:100F9000800050610198C06A00EB800251F8220085
:100FA000013041F82200FFE7FFE701F0A9F842F61F
:100FB0009040C2F200000068D8B1FFE7FFE740F2BE
:100FC000B420C2F200000068C06A0199C96A884270
:100FD0000CD2FFE74EF60451CEF200014FF08050E4
:100FE0000860BFF34F8FBFF36F8F00E0FFE7FFE7AD
:100FF00000E0FFE702B080BD80B584B001F068F882
:1010000042F6C840C2F20000006878BBFFE742F633
:101010000C40C2F20000029001F004F842F62040B9
:10102000C2F20000039000F0FDFF0299039840F225
:10103000B822C2F20002116040F2C821C2F20001DF
:10104000086069460020086040F21022C2F20002E7
:1010500040F26023C2F200030520102101F090FB52
:1010600042F6C841C2F20001086000E0FFE701F06B
:1010700047F804B080BD000080B582B0FFE742F6BB
:101080000400C2F20000006808B3FFE701F020F896
:1010900042F6B040C2F20000C068C06801900198FA
:1010A000043000F063FF42F60001C2F2000108685C
:1010B0000138086042F60401C2F2000108680138F4
:1010C000086001F01DF8019800F074F9D7E702B04C
:1010D00080BD000080B582B0019000910198006C45
:1010E000B8B1FFE70199C8680A6C1044C86001985C
:1010F0008168C068884204D3FFE701990868C86026
:1011000000E0FFE70098019AD168126CFFF7B7F88A
:10111000FFE702B080BD000080B586B00590049165
:101120000392002002900598806B01900598006C56
:1011300078B9FFE70598006848B9FFE70598806827
:1011400002F060F8029005990020886000E0FFE757
:1011500041E00398B8B9FFE7059A04995068126C0A
:10116000FFF78DF8059948680A6C104448600599A6
:1011700048688968884204D3FFE705990868486091
:1011800000E0FFE726E0059A0499D068126CFFF7AB
:1011900076F80599C8680A6C801AC86005980168D5
:1011A000C068884206D2FFE7059988680A6C801AF1
:1011B000C86000E0FFE70398022809D1FFE7019823
:1011C00020B1FFE701980138019000E0FFE700E05F
:1011D000FFE7FFE7FFE70198013005998863029870
:1011E00006B080BD80B590B001200F90002009901E
:1011F0000890FFE708980F2813DCFFE7089A43F6EA
:10120000BA00C0F60000815C0AA881540899405CCD
:1012100008B9FFE705E0FFE7FFE70898013008900D
:10122000E8E700200E90FFE70E9800283BDCFFE780
:1012300041F20550C0F6000009900020049007908C
:10124000069007A806A905AA00F0BAFE049B099813
:10125000059ADDF818C0DDF81CE06946C1F808E021
:10126000C1F804C00B600AA901F048FE01460E9ABD
:1012700042F66040C2F2000040F822100E9950F889
:10128000210018B1FFE701200F9002E000200F902D
:10129000FFE70F9808B9FFE705E0FFE7FFE70E98C3
:1012A00001300E90C0E70F9810B080BD70B58AB0C5
:1012B000DDF844C0DDF840C0DDF83CC0DDF838C0E2
:1012C0000990089107920693109828B3FFE70F98AA
:1012D00010B3FFE71098059005985C21FFF71CF804
:1012E0000F98059908630599022081F8590009981B
:1012F0000899079A069BDDF838C0119C059DEE46BB
:101300000026CEF80C60CEF80850CEF80440CEF897
:1013100000C000F04DF902E000200590FFE70598BD
:101320000AB070BD70B58AB0DDF83CC0DDF838C0D9
:1013300009900891079206930798800000F000FD3D
:1013400004900498A0B1FFE75C2000F0F9FC059040
:10135000059840B1FFE705985C21FEF7DDFF049892
:101360000599086303E0049800F0DEFEFFE702E061
:1013700000200590FFE70598C0B1FFE7059800261B
:1013800080F8596009980899079A069BDDF838C0DB
:101390000F9C059DEE46CEF80C60CEF80850CEF8B6
:1013A0000440CEF800C000F003F9FFE705980AB04A
:1013B00070BD000080B582B00190019890F859008E
:1013C00040B9FFE70198006B00F0AEFE019800F015
:1013D000ABFE0BE0019890F85900012804D1FFE71B
:1013E000019800F0A1FE00E0FFE7FFE702B080BD3A
:1013F00082B001900198406A38B1FFE70198006B14
:101400000068C0F13800009002E000200090FFE783
:10141000009802B07047000082B0019040F2B820FE
:10142000C2F2000000680068B0FA80F0400901993B
:1014300008600198006848B9FFE740F2B820C2F29E
:1014400000000068C0680068009002E00020009082
:10145000FFE7009802B0704784B04FF4005000904E
:1014600040F60000C2F2000002909DF8080040071C
:1014700088B1FFE7029807300290029820F0070039
:101480000290029A40F60001C2F200010098891A07
:1014900008440090FFE7029942F69440C2F200002F
:1014A0000160002141600298009A10440190019867
:1014B00008380190019820F007000190019A40F24D
:1014C000C020C2F200000260026851600268116030
:1014D000029903910199039A891A5160006803994E
:1014E00008600398406842F66441C2F20001086057
:1014F0000398406842F65C41C2F20001086004B003
:101500007047000080B582B00190FFE7FFF7B4FD9F
:1015100040F2CC20C2F20000006802280CD3FFE7A2
:101520004EF60451CEF200014FF080500860BFF338
:101530004F8FBFF36F8F00E0FFE7E7E780B582B022
:101540000190019868B1FFE701980023836001983A
:1015500003600198C360019819461A4601F0AEF97C
:1015600000E0FFE702B080BD80B584B0DDF818C0B0
:101570000390029101928DF80330029818B9FFE7A9
:101580000698006003E0019806990860FFE7039859
:101590000699C8630298069908640698012101F02B
:1015A00025F99DF80300069981F84C0004B080BD30
:1015B00080B586B0DDF82CC0DDF828C0DDF824C089
:1015C000DDF820C005900491039202930A98006B05
:1015D00003998900A522FEF797FE0A98006B0399EC
:1015E00000EB810004380190019820F00700019081
:1015F0000498F8B1FFE700200090FFE700980F285B
:1016000013D8FFE70498009A805C0A99114481F886
:10161000340004980099405C08B9FFE705E0FFE753
:10162000FFE7009801300090E8E70A99002081F870
:10163000430000E0FFE70898382803D3FFE737208E
:10164000089000E0FFE708980A99C86208980A998C
:10165000C8640A98043000F0FDFC0A98183000F0C5
:10166000F9FC0A9800610898C0F138000A9988616D
:101670000A98406201980599029A00F04FFC0A9975
:101680000860099820B1FFE70A980999086000E00E
:10169000FFE706B080BD000080B584B00020039055
:1016A000FFE70398372810D8FFE7039800EB800185
:1016B00040F2CC20C2F2000000EB810000F0B2FC4E
:1016C000FFE7039801300390EBE742F63440C2F2A3
:1016D0000000019000F0A6FC42F64840C2F2000073
:1016E000029000F09FFC42F67C40C2F2000000F045
:1016F00099FC42F6B040C2F2000000F093FC42F6C2
:101700009C40C2F2000000F08DFC0199029840F26A
:10171000BC22C2F20002116040F2C421C2F20001F8
:10172000086004B080BD000083B0029042F694408F
:10173000C2F200000190FFE7019800680299884218
:1017400005D2FFE7FFE7019800680190F4E70198F0
:1017500042F69441C2F20001884201D0FFE7FFE760
:1017600001980090009801994968084402998842BC
:1017700009D1FFE70298426801994868104448601F
:101780000198029000E0FFE702980090009802990B
:101790004968084401990968884220D1FFE7019807
:1017A000006840F2C021C2F20001096888420DD0F1
:1017B000FFE7019800684268029948681044486051
:1017C0000198006800680299086007E040F2C020B4
:1017D000C2F20000006802990860FFE704E0019887
:1017E000006802990860FFE701980299884204D0D6
:1017F000FFE702980199086000E0FFE703B0704737
:1018000080B586B005900491039202930020019068
:1018100004980599486005980061049803998842E6
:1018200016D8FFE703980299401A059989698842FA
:1018300003D3FFE70120019009E040F2C820C2F283
:10184000000000680599043100F00CFCFFE717E088
:1018500003980299884208D2FFE7049802998842C7
:1018600003D3FFE70120019009E040F2B820C2F263
:10187000000000680599043100F0F4FBFFE7FFE782
:10188000019806B080BD000080B582B0019000F0E4
:101890001FFC0198806B18B9FFE70120009002E05F
:1018A00000200090FFE700F02BFC009802B080BD04
:1018B00080B582B0019000F00BFC0198806B01991B
:1018C000C96B884203D1FFE70120009002E00020AD
:1018D0000090FFE700F014FC009802B080BD00000B
:1018E00006480068006880F3088862B661B6BFF3F6
:1018F0004F8FBFF36F8F00DF00BF000008ED00E0E7
:1019000080B584B00390029140F2B820C2F200008A
:101910000068C068C06801900198043000F026FBA0
:10192000019890F828004007002806D5FFE70198A5
:101930000399029A00F004F907E0019991F8280050
:1019400000F0FE0081F82800FFE70198016A88474F
:1019500004B080BD80B58AB000200990089007903F
:101960000690FFE742F6C840C2F20000006806A9F0
:10197000002201F0BDF8002800F09180FFE70698F2
:10198000B0F1FF3F09DCFFE706A80430029002999E
:101990000A6848688968904700E0FFE706980028D1
:1019A00000F17C80FFE7089805900598406928B110
:1019B000FFE70598043000F0D9FA00E0FFE704A83B
:1019C00000F0F6F8039006980138014601910828C6
:1019D00062D80199DFE801F00505323A4C0505327D
:1019E0003A00059991F8280040F0010081F828009C
:1019F0000598079B81691944039AFFF701FFD8B145
:101A0000FFE7059890F828004007002808D5FFE771
:101A10000598079982691144039A00F091F807E04C
:101A2000059991F8280000F0FE0081F82800FFE7F2
:101A30000598016A884700E0FFE72EE0059991F8D4
:101A4000280000F0FE0081F8280026E0059991F8B2
:101A5000280040F0010081F8280007980599886166
:101A60000598039B816919441A46FFF7C9FE14E0E3
:101A7000059890F828008007002804D4FFE705980F
:101A800000F052FB07E0059991F8280000F0FE00F5
:101A900081F82800FFE700E0FFE7FFE762E70AB010
:101AA00080BD000080B584B00390029100F014FD69
:101AB000684600F07DF801900098D8BBFFE70298D7
:101AC00060B9FFE703980199884207D8FFE701F062
:101AD0008BFD03980199FFF713FF2AE0029858B194
:101AE000FFE740F2C820C2F2000000680068B0FAC8
:101AF00080F040090290FFE742F6C840C2F20000C1
:101B000000680399019A891A029A00F07DFB01F09E
:101B10006BFD60B9FFE74EF60451CEF200014FF0C5
:101B200080500860BFF34F8FBFF36F8F00E0FFE777
:101B3000FFE702E001F058FDFFE704B080BD0000C0
:101B400080B584B0039002910192FFE70398029B55
:101B500081691944019AFFF753FE48B1FFE70398E2
:101B600081690298084402900398016A8847EDE76A
:101B700004B080BD40F2BC20C2F2000000680068E2
:101B800040B9FFE742F66841C2F200014FF0FF3072
:101B900008600CE040F2BC20C2F200000068C0689F
:101BA000006842F66841C2F200010860FFE7704732
:101BB00080B582B0019001F0EBF90090009840F2FE
:101BC000B021C2F200010968884206D2FFE700F0A6
:101BD00011F801990120086003E0019900200860D4
:101BE000FFE7009840F2B021C2F2000108600098BF
:101BF00002B080BD80B582B0FFE740F2B820C2F2EB
:101C000000000068006870B1FFE740F2B820C2F23F
:101C100000000068C0680068019001984FF0FF3133
:101C2000FFF76EFEE9E740F2B822C2F20002106848
:101C3000009040F2C821C2F20001086810600098CC
:101C4000086002B080BD000082B0002000904FF01C
:101C5000800080F31188BFF36F8FBFF34F8F019027
:101C6000FFE7009808B9FFE7FBE702B07047000004
:101C700080B584B00390FFE701A8FFF7CDFB029089
:101C800002980199FFF70EFFFFF764FEF4E70000EA
:101C900080B582B0019000F01BFA019890F84500E1
:101CA0008DF80300FFE79DF90300012816DBFFE72D
:101CB0000198406A58B1FFE70198243001F0CAFB4F
:101CC00018B1FFE700F0E4FA00E0FFE700E005E00C
:101CD0009DF8030001388DF80300E4E70199FF2027
:101CE00081F8450000F00CFA00F0F2F9019890F844
:101CF00044008DF80200FFE79DF90200012816DB81
:101D0000FFE70198006980B1FFE70198103001F00A
:101D1000A1FB18B1FFE700F0BBFA00E0FFE79DF878
:101D2000020001388DF8020000E000E0E4E70199CC
:101D3000FF2081F8440000F0E3F902B080BD00000C
:101D400080B588B0079000200390079840B3FFE764
:101D5000079810F1090F1FD8FFE707980830079080
:101D60009DF81C004007A8B1FFE7079800F00700A6
:101D7000C0F10800029007980299C943884205D82B
:101D8000FFE7029907980844079002E000200790B7
:101D9000FFE700E0FFE702E000200790FFE700E038
:101DA000FFE700F099FB40F2C020C2F2000000689B
:101DB00018B9FFE7FFF750FB00E0FFE79DF81F00B1
:101DC0000006002800F19180FFE70798002800F046
:101DD0008A80FFE7079842F65C41C2F20001096879
:101DE000884200F28080FFE742F69440C2F2000091
:101DF000059000680690FFE706984168079A002062
:101E00009142019007D2FFE706980068002818BFAA
:101E100001200190FFE70198C00730B1FFE7069865
:101E20000590069800680690E6E7069840F2C02103
:101E3000C2F200010968884253D0FFE705980068A4
:101E40000830039006980068059908600698406875
:101E50000799401A112815D3FFE7069807990844F7
:101E60000490069840680799401A049948600798BA
:101E700006994860059800680499086004980599D7
:101E8000086000E0FFE70698426842F65C40C2F254
:101E900000000168891A0160006842F66441C2F2DC
:101EA0000001096888420BD2FFE742F65C40C2F2AB
:101EB0000000006842F66441C2F20001086000E0E0
:101EC000FFE70699486840F0004048600699002006
:101ED000086042F67041C2F20001086801300860F3
:101EE00000E0FFE700E0FFE700E0FFE701F07CFB38
:101EF000039808B080BD000081B040F2B420C2F267
:101F0000000000680090009828B1FFE70099086D74
:101F100001300865FFE7009801B0704783B0029078
:101F20000191009202980438029002994FF080705B
:101F30000860029804380290019820F0010002998C
:101F40000860029804380290029941F64940C0F6B0
:101F50000000086002981438029000980299086006
:101F6000029820380290029803B0704782B0019026
:101F70000198006900900198416880688860019923
:101F8000486889684860009840680199884205D18E
:101F9000FFE7019880680099486000E0FFE7019939
:101FA00000200861009908680138086000980068FE
:101FB00002B0704742F60000C2F2000000687047AD
:101FC00083B0029001910092029942F61420C2F26D
:101FD00000000860019942F61400C2F20000086097
:101FE00000998020086003B07047000083B0029021
:101FF00001910092029942F6B030C2F200000860EE
:10200000019942F67020C2F2000008600099502049
:10201000086003B07047000082B00190009102B0E8
:102020007047000081B00090009901F108004860FD
:1020300000994FF0FF308860009901F10800C860F6
:10204000009901F10800086100990020086001B0C2
:102050007047000081B0009000990020086101B035
:102060007047000084B003900291029800680090CD
:102070000098013020B9FFE703980069019010E053
:10208000039808300190FFE70198406800680099C4
:10209000884205D8FFE7FFE7019840680190F3E721
:1020A000FFE701984068029948600298416888609B
:1020B00001980299886002980199486003980299F2
:1020C0000861039908680130086004B07047000097
:1020D00081B04FF0800080F31188BFF36F8FBFF3A2
:1020E0004F8F009040F20400C2F2000001680131FD
:1020F00001600068012801D1FFE7FFE701B07047E8
:1021000081B040F20400C2F20000016801390160B0
:10211000006830B9FFE700200090009880F3118834
:10212000FFE701B07047000080B584B003900398CA
:102130000290039888B3FFE702980838029002984B
:1021400001900198C1790020B0EBD11F23D0FFE7A7
:1021500001980068E8B9FFE70199486820F000405D
:10216000486000F0B9F90198426842F65C41C2F259
:1021700000010868104408600198FFF7D5FA42F69C
:102180007441C2F2000108680130086001F02CFAC5
:1021900000E0FFE700E0FFE7FFE704B080BD0000DC
:1021A0004EF21001CEF20001002008604EF218023B
:1021B000CEF20002106040F20000C2F2000000689F
:1021C00044F6D352C1F26202A0FB02024FF0FF308C
:1021D00000EB92104EF21402CEF2000210600720C3
:1021E0000860704780B582B0019001980090009817
:1021F00090F8460020B9FFE70098FFF795FF00E050
:10220000FFE702B080BD000080B584B0039002916A
:10221000019203980090FFF75BFF009890F944004B
:10222000013028B9FFE70099002081F84400FFE75A
:10223000009890F94500013028B9FFE70099002087
:1022400081F84500FFE7FFF75BFF0098806B38B926
:10225000FFE7009824300299019A00F035F800E079
:10226000FFE70098FFF714FD04B080BD81B0009037
:1022700042F66C40C2F2000000680099086042F625
:10228000C440C2F2000000680099486001B0704785
:1022900042F6D041C2F20001012008607047000000
:1022A00080B582B001900091019840F2B421C2F251
:1022B000000109681831FFF7D5FE00980121FEF7EB
:1022C0005BFD02B080BD000080B584B00390029138
:1022D0000192FFE7039840680090009840F2B42113
:1022E000C2F200010A68D061009880680A68106232
:1022F00008681830009A9268506008681830009A90
:102300009060039809688862039908680130086042
:10231000FFE7019820B1FFE74FF0FF300290FFE7A1
:1023200002980199FEF728FD04B080BD80B588B001
:1023300007900691079805900120029007980028C1
:1023400000F08D80FFE70598C06C0699884203D2A3
:10235000FFE70698039003E00598C06C0390FFE741
:102360000598C06A0399884277D0FFE70598006D09
:10237000012870D1FFE70598C06A04900398059979
:10238000C8620598C07E0006002806D4FFE70398BF
:10239000C0F138000599886100E0FFE705984069C1
:1023A000049901EB810240F2CC21C2F2000101EB61
:1023B000820188424DD1FFE705980430FFF7D6FD32
:1023C00008B9FFE700E0FFE7FFE7FFE70598C06A0D
:1023D00042F61001C2F200010968884208D9FFE7FD
:1023E0000598C06A42F61001C2F200010860FFE7DA
:1023F000FFE7FFE70598C06A00EB800040F2CC21C0
:10240000C2F2000101EB8000406801900198059A3A
:10241000906001988068059AD06005980430019A10
:102420009268506005980430019A9060059AD06ACD
:1024300000EB800001EB800050610598C06A00EB62
:10244000800251F82200013041F82200FFE7FFE747
:1024500000E0FFE700E0FFE700E0FFE700E0FFE764
:1024600008B080BD80B582B0FEF7BCFE0090009839
:10247000012804D1FFE701F0D7F9009000E0FFE761
:10248000009801281FD1FFE74FF0800080F31188EA
:10249000BFF36F8FBFF34F8F019042F66841C2F2D6
:1024A00000014FF0FF30086042F69041C2F2000197
:1024B0000120086042F6C441C2F200010020086019
:1024C00000F0A0F800E0FFE743F6C800C0F6000007
:1024D000006802B080BD000042F60801C2F20001AF
:1024E000086801300860704780B586B042F6080081
:1024F000C2F20000006838B1FFE742F6D041C2F2F4
:102500000001012008607BE042F6D041C2F20001E8
:1025100000200860FFE740F2B420C2F2000000682B
:10252000006B05904FF0A530049005980068B0F15D
:10253000A53F12D1FFE705984068B0F1A53F0CD147
:10254000FFE705988068B0F1A53F06D1FFE7059841
:10255000C068B0F1A53F0CD0FFE740F2B420C2F252
:10256000000001683431039100680399FFF754FDBE
:10257000FFE7FFE7FFE742F61000C2F20000006845
:102580000290FFE7029800EB800140F2CC20C2F2FB
:10259000000050F8210020B9FFE7029801380290AE
:1025A000F0E7FFE7029800EB800140F2CC20C2F296
:1025B000000000EB81000190019948684068486084
:1025C000019948680831884204D1FFE70199C86839
:1025D0004860FFE701984068C06840F2B421C2F249
:1025E00000010860FFE7029842F61001C2F2000104
:1025F0000860FFE740F2B420C2F200000068FFE785
:1026000006B080BD80B582B04EF60850CEF2000014
:10261000006801904EF62051CEF20001086840F4A7
:102620007F000860086840F07F4008604EF61C514B
:10263000CEF20001002000900860FFF7B1FD009885
:1026400040F20401C2F200010860FFF749F9FFF708
:102650004BFFFFF7F9FA009802B080BD80B582B059
:102660004FF0800080F31188BFF36F8FBFF34F8F5F
:10267000009000F097FC40B1FFE74EF60451CEF217
:1026800000014FF08050086000E0FFE7002001905B
:10269000019880F3118802B080BD000080B584B03D
:1026A0008DF80F0001200190002100919DF80F206E
:1026B00000F022F802900298FEF740FF029804B062
:1026C00080BD000080B586B08DF817000491012010
:1026D0000290002201929DF81710049BEC46CCF862
:1026E0000010114600F04CF803900398FEF726FF07
:1026F000039806B080BD000080B588B007900691B1
:102700008DF81720002004900798A0B3FFE70799E1
:102710004FF0FF30B0FBF1F0069988422BD3FFE772
:1027200007980699484310F1510F24D8FFE70798FE
:1027300006994843039003985030FFF701FB04903B
:102740000498B0B1FFE704980290029850300290CC
:102750000499002081F8460007980699029A9DF88E
:102760001730DDF810C0EE46CEF800C0FEF7FCFED4
:1027700000E0FFE700E0FFE7049808B080BD00003C
:1027800080B588B084460A98CDF81CC006910592A1
:1027900004938DF80F0000200290079810B3FFE714
:1027A0000498F8B1FFE7059818B1FFE70698C8B19B
:1027B000FFE7059818B9FFE7069898B9FFE704986E
:1027C00002900299012081F8460007980699059A1F
:1027D0009DF80F30DDF808C0EE46CEF800C0FEF7D9
:1027E000C3FE00E0FFE7029808B080BD80B584B06A
:1027F0000390029101200190039800900098002816
:1028000056D0FFE70098C06B002851D0FFE7009832
:10281000C26B016C4FF0FF30B0FBF2F0884247D33F
:10282000FFE7FFF755FC00990B68C86B0A6C00FBCB
:102830000230886000990020886300990868486029
:1028400000990B68C86B0A6C013800FB0230C86045
:102850000099FF2081F84400009981F84500029812
:10286000D0B9FFE700980069A0B1FFE700981030E9
:1028700000F0F0FD60B1FFE74EF60451CEF200012A
:102880004FF080500860BFF34F8FBFF36F8F00E0B1
:10289000FFE700E0FFE708E000981030FFF7C2FB19
:1028A00000982430FFF7BEFBFFE7FFF729FC02E0AA
:1028B00000200190FFE7019804B080BD80B58AB088
:1028C00008900791069205930020049008980090C4
:1028D000FFE7FFF7FDFB0098806B0099C96B88420A
:1028E00004D3FFE70598022834D1FFE70098079941
:1028F000059AFEF711FC03900098406AA0B1FFE72B
:102900000098243000F0A6FD60B1FFE74EF60451B8
:10291000CEF200014FF080500860BFF34F8FBFF33D
:102920006F8F00E0FFE710E0039860B1FFE74EF61D
:102930000451CEF200014FF080500860BFF34F8F7A
:10294000BFF36F8F00E0FFE7FFE7FFF7D9FB012040
:10295000099065E0069828B9FFE7FFF7D1FB002052
:1029600009905DE0049830B9FFE701A8FFF77EFC0D
:102970000120049000E0FFE7FFE7FFE7FFF7C0FB5F
:10298000FFF7AAFDFFF7A4FB009890F9440001307F
:1029900028B9FFE70099002081F84400FFE700987C
:1029A00090F94500013028B9FFE70099002081F82F
:1029B0004500FFE7FFF7A4FB01A806A900F012FA03
:1029C00028BBFFE70098FEF773FFC8B1FFE7009848
:1029D00010300699FFF764FC0098FFF759F900F0F2
:1029E00003FE60B9FFE74EF60451CEF200014FF04E
:1029F00080500860BFF34F8FBFF36F8FFFE705E094
:102A00000098FFF745F900F0EFFDFFE707E00098B9
:102A1000FFF73EF900F0E8FD0020099000E058E7DC
:102A200009980AB080BD000080B58CB0089007916D
:102A300008980490EFF311814FF0800080F3118823
:102A4000BFF36F8FBFF34F8F0A9109900A980590DB
:102A50000498806B039003980499C96B88423BD219
:102A6000FFE7049890F845008DF80B0003980130BB
:102A7000049988639DF90B000130B8B9FFE7049809
:102A8000406A88B1FFE70498243000F0E3FC48B1C5
:102A9000FFE7079820B1FFE707990120086000E0F1
:102AA000FFE700E0FFE700E0FFE712E0FFE7FFF7E6
:102AB00081FA01909DF90B000199884207D2FFE746
:102AC0009DF80B000130049981F84500FFE7FFE70E
:102AD000FFE70120069002E000200690FFE705983E
:102AE0000B900B9880F3118806980CB080BD000005
:102AF00080B58AB00890079106920020059008984A
:102B00000290FFE7FFF7E4FA0298806B01900198CA
:102B100030B3FFE702980799FEF7DCFA0198013815
:102B20000299886302980069A0B1FFE7029810300B
:102B300000F090FC60B1FFE74EF60451CEF20001C8
:102B40004FF080500860BFF34F8FBFF36F8F00E0EE
:102B5000FFE700E0FFE7FFF7D3FA012009906DE0FF
:102B6000069828B9FFE7FFF7CBFA0020099065E047
:102B7000059830B9FFE703A8FFF778FB012005901F
:102B800000E0FFE7FFE7FFE7FFF7BAFAFFF7A4FC73
:102B9000FFF79EFA029890F94400013028B9FFE748
:102BA0000299002081F84400FFE7029890F945005F
:102BB000013028B9FFE70299002081F84500FFE7BE
:102BC000FFF79EFA03A806A900F00CF930BBFFE757
:102BD0000298FEF759FED0B1FFE70298243006991B
:102BE000FFF75EFB0298FFF753F800F0FDFC60B9B9
:102BF000FFE74EF60451CEF200014FF0805008601E
:102C0000BFF34F8FBFF36F8F00E0FFE705E002983F
:102C1000FFF73EF800F0E8FCFFE70EE00298FFF750
:102C200037F800F0E1FC0298FEF72EFE18B1FFE73E
:102C30000020099002E0FFE7FFE763E709980AB088
:102C400080BD000080B58AB00890079100200690F2
:102C5000089903910290FFE7FFF73AFA0398806B17
:102C60000190019860B3FFE70198013803998863E8
:102C70000398006828B9FFE7FFF73EF903998860D9
:102C800000E0FFE703980069A0B1FFE70398103068
:102C900000F0E0FB60B1FFE74EF60451CEF2000118
:102CA0004FF080500860BFF34F8FBFF36F8F00E08D
:102CB000FFE700E0FFE7FFF723FA012009908DE02E
:102CC000079828B9FFE7FFF71BFA0020099085E075
:102CD000069830B9FFE704A8FFF7C8FA012006906C
:102CE00000E0FFE7FFE7FFE7FFF70AFAFFF7F4FB73
:102CF000FFF7EEF9039890F94400013028B9FFE797
:102D00000399002081F84400FFE7039890F94500FB
:102D1000013028B9FFE70399002081F84500FFE75B
:102D2000FFF7EEF904A807A900F05CF8A8BBFFE7DD
:102D30000398FEF7A9FD48B3FFE70398006850B970
:102D4000FFE7FFF7C5F90398806800F0D5FA029015
:102D5000FFF7D6F900E0FFE7039824300799FFF763
:102D60009FFA0398FEF794FF00F03EFC60B9FFE77E
:102D70004EF60451CEF200014FF080500860BFF3D0
:102D80004F8FBFF36F8F00E0FFE705E00398FEF77A
:102D90007FFF00F029FCFFE71FE00398FEF778FFB4
:102DA00000F022FC0398FEF76FFDA0B1FFE7029848
:102DB00070B1FFE7FFF78CF90398FEF719FB00905D
:102DC000039880680099FFF7B1FAFFF799F9FFE7D8
:102DD0000020099002E0FFE7FFE73DE709980AB00D
:102DE00080BD000080B586B005900491FFF770F9B2
:102DF00042F6C440C2F200000068029002980599B1
:102E00004968401A019040F2B420C2F20000006804
:102E100090F85A0058B1FFE740F2B420C2F2000027
:102E20000168002081F85A000120039037E00498DF
:102E30000068013018B9FFE7002003902EE042F649
:102E40006C40C2F2000000680599096888420CD005
:102E5000FFE7029805994968884206D3FFE70120F9
:102E6000039004990020086017E00198049909680C
:102E700088420BD2FFE7019A04990868801A08601B
:102E80000598FFF7F3F90020039005E0049900206E
:102E9000086001200390FFE7FFE7FFE7FFE7FFF788
:102EA0002FF9039806B080BD10B588B0DDF82CC0AE
:102EB000DDF828C0079006910592049307980699BB
:102EC000059A049BDDF828C00B9CEE46CEF8044022
:102ED000CEF800C0FEF726FA0390039830B1FFE762
:102EE0000398FDF7D1FF0120029003E04FF0FF307F
:102EF0000290FFE7029808B010BD000070B58AB0DC
:102F0000DDF840C0DDF83CC0DDF838C0099008911C
:102F1000079206930020059009980899079A069B46
:102F2000DDF838C00F9C109DEE4605AECEF80C6063
:102F3000CEF80850CEF80440CEF800C0FEF7B6F93F
:102F40000490049820B1FFE70498FDF79DFF00E08E
:102F5000FFE705980AB070BD81B042F69040C2F21A
:102F60000000006818B9FFE7012000900DE042F66C
:102F70000800C2F20000006818B9FFE702200090C4
:102F800002E000200090FFE7FFE7009801B07047E3
:102F900081B042F6C440C2F2000000680090009880
:102FA00001B0704780B588B00020059042F6080057
:102FB000C2F200000068002840F01881FFE742F6E6
:102FC000C441C2F20001086801300490049808600E
:102FD0000498D0B9FFE7FFE740F2BC22C2F200023A
:102FE0001068039040F2C421C2F20001086810602A
:102FF0000398086042F66C41C2F200010868013093
:103000000860FEF7B7FDFFE700E0FFE7049842F62F
:103010006841C2F2000109688842C0F0C680FFE73B
:10302000FFE740F2BC20C2F200000068006840B92F
:10303000FFE742F66841C2F200014FF0FF3008603E
:10304000B2E040F2BC20C2F200000068C068C06874
:10305000079007984068069004980699884207D21E
:10306000FFE7069842F66841C2F2000108609BE063
:10307000FFE7FFE707984069029007988168C068FA
:10308000886007998868C96848600298406807990D
:103090000431884205D1FFE70798C068029948606B
:1030A000FFE7079900204861029908680138086025
:1030B000FFE70798806A08B3FFE7FFE70798806A91
:1030C00001900798C169006A88600799C869096A10
:1030D00048600198406807991831884205D1FFE798
:1030E0000798006A01994860FFE707990020886205
:1030F0000199086801380860FFE700E0FFE7FFE793
:10310000FFE70798C06A42F61001C2F200010968A1
:10311000884208D9FFE70798C06A42F61001C2F258
:1031200000010860FFE7FFE7FFE70798C06A00EBD0
:10313000800040F2CC21C2F2000101EB8000406827
:1031400000900098079A906000988068079AD06075
:1031500007980430009A9268506007980430009AEB
:103160009060079AD06A00EB800001EB800050610C
:103170000798C06A00EB800251F82200013041F844
:103180002200FFE7FFE70798C06A40F2B421C2F2CD
:1031900000010968C96A884203D9FFE70120059048
:1031A00000E0FFE7FFE73CE7FFE740F2B420C2F2B0
:1031B00000000068C06A00EB800140F2CC20C2F23F
:1031C000000050F82100022803D3FFE701200590FA
:1031D00000E0FFE742F6D040C2F20000006818B1FC
:1031E000FFE70120059000E0FFE707E042F67841A5
:1031F000C2F20001086801300860FFE7059808B0D6
:1032000080BD000080B584B0039003980290002038
:103210000190039800286AD0FFE70299086D0138F1
:1032200008650299C86AC96C88425ED0FFE70298B7
:10323000006D002857D1FFE702980430FEF796FE94
:1032400008B9FFE700E0FFE70299C86CC86202997D
:10325000C86AC0F138008861FFE7FFE70298C06ADA
:1032600042F61001C2F200010968884208D9FFE75E
:103270000298C06A42F61001C2F200010860FFE73E
:10328000FFE7FFE70298C06A00EB800040F2CC2124
:10329000C2F2000101EB8000406800900098029AA1
:1032A000906000988068029AD06002980430009A7A
:1032B0009268506002980430009A9060029AD06A36
:1032C00000EB800001EB800050610298C06A00EBC7
:1032D000800251F82200013041F82200FFE7FFE7A9
:1032E0000120019000E0FFE700E0FFE700E0FFE7DA
:1032F000019804B080BD000080B584B003900398AD
:103300000290002001900398002800F09F80FFE7C2
:103310000298C06A40F2B421C2F200010968C96A89
:10332000884280F08280FFE70298C07E0006002875
:103330000BD4FFE740F2B420C2F200000068C06A7C
:10334000C0F138000299886100E0FFE702994869FE
:10335000C96A01EB810240F2CC21C2F2000101EB0B
:103360008201884255D1FFE702980430FEF7FEFD46
:1033700008B9FFE700E0FFE740F2B420C2F2000026
:103380000068C06A0299C862FFE7FFE70298C06A56
:1033900042F61001C2F200010968884208D9FFE72D
:1033A0000298C06A42F61001C2F200010860FFE70D
:1033B000FFE7FFE70298C06A00EB800040F2CC21F3
:1033C000C2F2000101EB8000406800900098029A70
:1033D000906000988068029AD06002980430009A49
:1033E0009268506002980430009A9060029AD06A05
:1033F00000EB800001EB800050610298C06A00EB96
:10340000800251F82200013041F82200FFE7FFE777
:1034100008E040F2B420C2F200000068C06A0299DD
:10342000C862FFE7012001900FE00298C06C40F2F3
:10343000B421C2F200010968C96A884203D2FFE7D9
:103440000120019000E0FFE7FFE700E0FFE70198BF
:1034500004B080BD87B006900698C068C06805902B
:10346000FFE70598806A03900598C169006A886043
:103470000599C869096A4860039840680599183138
:10348000884205D1FFE70598006A03994860FFE785
:103490000599002088620399086801380860FFE7F1
:1034A00042F60800C2F200000068002865D1FFE77C
:1034B000FFE705984069029005988168C0688860B8
:1034C00005998868C9684860029840680599043180
:1034D000884205D1FFE70598C06802994860FFE778
:1034E0000599002048610299086801380860FFE7E3
:1034F000FFE7FFE70598C06A42F61001C2F200013B
:103500000968884208D9FFE70598C06A42F61001A9
:10351000C2F200010860FFE7FFE7FFE70598C06A15
:1035200000EB800040F2CC21C2F2000101EB8000F0
:10353000406801900198059A906001988068059A0A
:10354000D06005980430019A926850600598043064
:10355000019A9060059AD06A00EB800001EB800030
:1035600050610598C06A00EB800251F822000130DA
:1035700041F82200FFE7FFE71DE0FFE742F67C414C
:10358000C2F20001486800900098059AD061009846
:103590008068059A106205981830009A9268506009
:1035A00005981830009A906005988162086801308B
:1035B0000860FFE7FFE70598C06A40F2B421C2F255
:1035C00000010968C96A884208D9FFE70120049010
:1035D00042F6D041C2F20001086002E000200490EF
:1035E000FFE7049807B0704780B588B000200090CE
:1035F00007900690FEF76CFD0098059042F60800D3
:10360000C2F200000168013901600068002840F042
:103610000481FFE742F60000C2F2000000680028C3
:1036200000F0FA80FFE7FFE742F67C40C2F20000BC
:103630000068002800F0A280FFE742F67C40C2F25A
:103640000000C068C0680790FFE70798806A049090
:103650000798C169006A88600799C869096A486063
:103660000498406807991831884205D1FFE7079808
:10367000006A04994860FFE707990020886204996E
:10368000086801380860FFE7FFE707984069039082
:1036900007988168C068886007998868C968486029
:1036A0000398406807990431884205D1FFE70798DD
:1036B000C06803994860FFE70799002048610399B3
:1036C000086801380860FFE7FFE7FFE70798C06A6E
:1036D00042F61001C2F200010968884208D9FFE7EA
:1036E0000798C06A42F61001C2F200010860FFE7C5
:1036F000FFE7FFE70798C06A00EB800040F2CC21AB
:10370000C2F2000101EB8000406802900298079A23
:10371000906002988068079AD06007980430029AF7
:103720009268506007980430029A9060079AD06AB5
:1037300000EB800001EB800050610798C06A00EB4D
:10374000800251F82200013041F82200FFE7FFE734
:103750000798C06A40F2B421C2F200010968C96A40
:10376000884209D9FFE7059A42F6D041C2F200012A
:10377000012041F8220000E0FFE755E7079818B163
:10378000FFE7FEF7F7F9FFE742F67840C2F20000E4
:10379000006801900198F0B1FFE7FFE7FFF702FC36
:1037A00048B1FFE7059A42F6D041C2F2000101207C
:1037B00041F8220000E0FFE7019801380190FFE79F
:1037C00001980028EAD1FFE742F67841C2F20001F1
:1037D0000020086000E0FFE7059942F6D040C2F201
:1037E000000050F82100A8B1FFE701200690FFE794
:1037F00040F2B420C2F2000000684EF60451CEF24E
:1038000000014FF080500860BFF34F8FBFF36F8F00
:10381000FFE700E0FFE7FFE700E0FFE7FEF770FCEF
:10382000069808B080BD000080B588B000200790E1
:10383000FDF7E2FB42F6C840C2F20000006858B350
:10384000FFE7002003900690059006A805A904AAAA
:10385000FEF7CCFB039B049A0598DDF818C0694677
:10386000C1F808C048602820086041F67140C0F6E1
:10387000000043F6BF01C0F60001FFF73FFB014621
:1038800042F6CC40C2F200000160006818B1FFE7C8
:1038900001200790FFE700E0FFE7079808B080BD30
:1038A00000000000000000000102030406070809F0
:1038B000554152545F5461736B0049444C45005468
:1038C0006D7220537663000037000000F038000866
:1038D000000000200800000094010008F8380008EB
:1038E00008000020D0320000B401000800000000F1
:0838F00000A24A04AAAAAAAA38
:0400000508000131BD
:00000001FF
